:020020007B0063
:1000000000000113022F0128FE2C82011D3812303E
:16002400022F800B1930002F80030012022F002800171530113007
:020022009A3012
:0209FE00FD1DDD
:20003A00F42F8301522C432C022CD82CD62C002C002CA02C0F2C392CD42F8301522C432CA6
:20005A00022CB62C352C002C002CE42C0C2C392C5C2F8301522C432C022C6D2C0D2C002CE8
:20007A00002CB82C0B2C392C342F8301522C432C012C002C122C7A2C002C882C132C0B2C53
:20009A00142F8301522C432C012C002C092C3D2C002C942C112C0B2C3C2F8301522C432C5F
:2000BA00012C802C842C1E2C002CA02C0F2C0B2C1C2F8301522C432C012C402C422C0F2CEB
:2000DA00002CE42C0C2C0B2C7C2F8301522C432C012C202CA12C072C002CB82C0B2C0B2C48
:2000FA009C2F8301522C432C012C902CD02C032C002CB82C0B2C0B2CF63C9A01422C472C6A
:1E011A00032C6E2C0F2C1A2C182C192C002C002C002C002C002C002C00029A307A00A6
:00000001FF
