:020020001D3091
:1000000000000113492F0928FE2C820164381230A8
:16002400022F800B1930002F80030012022F4728001715301130C0
:020022006B3041
:20003A007200800F7200C501402C002B3430851D820F830E002B3430830F800B820F012C44
:20005A00002B3130D01F3230D01D031502167300800B73007B00820F830E002A3830841D4B
:20007A008E0FC90B8F0FCA0BC915CA16C90F800BCA0F022D830B800F820B841F8F0F800BE3
:20009A008E0F7A00900F920B910F930B920F800B930F363A002B6330121213108E0B0F13B7
:2000BA003838FF2A5330800FFF2A53307A00342F8301ED3F8B01EE3FBC010002202FB001CA
:2000DA00012FB201452FB301802F91015F2F820BD52F830B402F84017800082FA101BC2FDD
:2000FA00A001422F900B822F910B4F38A01FE001402C002B8430E201BD0B3E133F134013D9
:20011A00502FB90BAB2FBA0B042FBB0B3C13142F7200A839C201FE288201940F980B950FAF
:20013A00990B960F9A0B970F9B0B980F9D0B990F9E0B042F9F0B20130A2FA10BDA38042F91
:20015A00900B11134F385D2FC10B822FC20BEC39111C121C0D1CA82FA001612FC10B822F3B
:20017A00C20BEC39A01FE001402C002BC030E2019C0B732F900B822F910B4F389C0F9D0B5E
:1A019A001E13042F9F0B20130A2FA10BDA38042FC10B4213EC39BF307A0031
:200484004D026502610273027502720269026E0267022002560244024402200228025602F1
:2004A400420261026E02640247026102700229023A022002000220026D02560200025302D2
:2004C4007402610272027402200241024402430220026F026E022002500241022E02300249
:1204E4000002500241022E02300220023A02200200028B
:2001B4002213A20F72006B00002F6100800B73001F0CA30BA00F000DA40BA10FA50B2613FD
:2001D4009D0FC50B9E0FC60BA50FC70BA60FC80B083A3028800BA30F80138003A30F800BD9
:2001F400A40F363A3A2A000040180931A30F800BA40F363A0728800BA30F801380039D0F44
:20021400B50B9E0FB60BA50FB70BA60FB80B85399D0B800F9E0B22129D0F9E0E002ADB304F
:20023400A20F0129A70BA20F72006B00002F6100800B73001F0C8013200D002F8003281329
:20025400A80FA70CC018802E6B00401A5D31A80F72006B00002F6100800B73001F0CA90B46
:20027400A00F000DAA0BA90F800BAA0F363AAB0BA70F72006B00002F6100800B73001F0C8B
:20029400AC0BA00F000DAD0BAC0F800BAD0F363A800BA90F80138003AC0F800BAB0F8003D1
:2002B4002812A7122A317A00AF0F802940187931B20F0A2A7931B00FB30BB10FB40BB30F9C
:2002D400800B2D2F8003B30F0128B00BB40F6000B10B002FAE0CAE0B002FAF0DAF0BAE0F17
:1602F4009D0BAF0F9E0BB00F9F0BB10FA00BB20FA10BDA307A0020
:20030A0049134A13102FCB0B0013B60F6B00002F6D00B515B616C915CA16002B9631012FB0
:20032A00C90AC90FB70CCA0FB80D4018A231B70FC908B80FCA09012FB50ACB118931B60F01
:06034A00800BB50F7A00E4
:2003500049134A134B134C13202F800BBC0FCD0B4E134F135013072F4D156300B431CD0FB8
:20037000012CB915BA16BB16BC16C915CA16CB16CC16002BC531012FC90AC90FBD0CCA0FE0
:20039000BE0DCB0FBF0DCC0FC00D4018D931BD0FC908BE0FCA09BF0FCB09C00FCC09012F1F
:2003B000B90A8011AE31C201FC28800B8103800BB90F80030012BA0F80030012BB0F800371
:0803D0000012BC0F80037A004B
:2003D800C10FC30BC20FC40BC30F800BC40F363A002B0332431244108E0B0F133838FF2ACA
:1803F800F031800FFF2AF031FF2F800BFF020A2F8E0B0F1338307A0063
:2004100049134A130013C80F6B00002F6D00002A2032C715C816C50FC70CC60FC80D401A41
:200430001C324815471620324A12CA0FC90B0A32C90F800BC50FC70CC60FC80D40182C32A3
:20045000C70FC508C80FC60948154716800F8012002A2232C60F800BC50F7A008029401A39
:140470003B3281037A0080137200C201FF28801380037A008E
:00000001FF
