:020020007B0063
:1000000000000113022F0128FE2C82011D3812303E
:16002400022F800B1930002F80030012022F002800171530113007
:02002200AA3002
:020FFE007D3143
:20003A00F42F8301522C432C022CD82CD62C002C002CA02C0F2C3B2CD42F8301522C432CA4
:20005A00022CB62C352C002C002CE42C0C2C3B2C5C2F8301522C432C022C6D2C0D2C002CE6
:20007A00002CB82C0B2C3B2C342F8301ED3F8B01542F8301522C432C012C002C242CF42C5C
:20009A00002C882C132C0B2C342F8301522C432C012C002C122C7A2C002C882C132C0B2C89
:2000BA00142F8301522C432C012C002C092C3D2C002C942C112C0B2C3C2F8301522C432C3F
:2000DA00012C802C842C1E2C002CA02C0F2C0B2C1C2F8301522C432C012C402C422C0F2CCB
:2000FA00002CE42C0C2C0B2C7C2F8301522C432C012C202CA12C072C002CB82C0B2C0B2C28
:20011A009C2F8301522C432C012C902CD02C032C002CB82C0B2C0B2CEE3FBC01422C472C2C
:1E013A00032C6E2C0F2C3C2C2B2C2C2C002C002C002C002C002C002C0002AA307A002E
:00000001FF
