:020020003B00A3
:100000000000810902170110FE1482001D1C121845
:160024000217C00519180017E000000902170010800B15181118AD
:02002200A6181E
:0207FE00610E8A
:20003A00F41783005214431402147814E61400140014A0140F141F14D41783005214431462
:20005A0002149E14391400140014E4140C141F145C17830052144314021467140E14001484
:20007A000014B8140B141F145417830052144314011400142414F4140014881413140B142A
:20009A0034178300521443140114001412147A140014881413140B1414178300521443147D
:2000BA000114001409143D140014941411140B143C178300521443140114801484141E1489
:2000DA000014A0140F140B141C178300521443140114401442140F140014E4140C140B145C
:2000FA007C1783005214431401142014A11407140014B8140B140B149C17830052144314E9
:20011A0001149014D01403140014B8140B140B14F61F99004214471403146E140F141914AB
:16013A001A141E140014001400140014001400140001A6183A00DE
:00000001FF
