:020020001D18A9
:100000000000810915170310FE148200521C1218FB
:160024000217C00519180017E000000902171310800B151811189A
:02002200611863
:20003A003200C0073200A5004014001225183718C50EC207430700122B183718C307C005CB
:20005A00C2070114001232183418F00F3518F00E830A020B3300C00533003B00C2074307A3
:20007A0000123B18C40EC407D505C507D605D50A560BD507C005D6070215C305C007C205B8
:20009A00C40FC507C005C4073A0014178300521443140114401442140F14001488141314B9
:2000BA000B14F61F9900000120179C000717970067178900801791005F17C205D517C305B0
:2000DA0040178400380084179A008B17D1058117D205C21C860987098809C6071011200D2E
:2000FA00AE18C60720159E006417C9058A098B098C09C9074A074B074C0700128D18921854
:20011A0049094A084B084C088618BA004014001297189C183E17C40585093B1CA0183C174B
:20013A00C40585093B1CEB170706C00580178806D205C007D105C21C051707040808060966
:20015A007A182017CD05BF17CE050217CF059009CD074E074F0750070012BC1872184D091F
:0A017A004E084F085008B5183A006F
:2001D60035012E0133013301000134012E0138013001000134012E01330136010001340167
:2001F6002E0130013001000133012E0136013901000133012E0134013301000133012E0152
:2002160032013001000133012E0130013001000132012E0138013201000132012E01360135
:200236003701000132012E0135013301000132012E0134013001000132012E01320139010A
:20025600000132012E0131013801000132012E0130013901000132012E0130013001000126
:2002760035012E0133013301000134012E0138013001000134012E013301360100013401C6
:200296002E0130013001000133012E0136013901000133012E0134013301000133012E01B1
:2002B60032013001000133012E0130013001000132012E0138013201000132012E01360195
:2002D6003701000132012E0135013301000132012E0134013001000132012E01320139016A
:2002F600000132012E0131013801000132012E0130013901000132012E0130013001000186
:100316005601440144012001690173013A010001BB
:20018400D107D305D207D405D307C005D407DF1C0012CD18DA1813091408C40585093B1CB5
:2001A400FF12C618C007FF12C618FF17C005FF010A17C40585093B183A008011200DE418FC
:1201C400E1003A00C0093200A200FF10C009E0003A007F
:00000001FF
