:020020001D18A9
:10000000000081090E170310FE148200521C121802
:160024000217C00519180017E000000902170C10800B15181118A1
:020022005F1865
:20003A003200C0073200A5004014001225183718C50EC207430700122B183718C307C005CB
:20005A00C2070114001232183418F00F3518F00E830A020B3300C00533003B00C2074307A3
:20007A0000123B18C40EC407CE05C507CF05CE0A4F0BCE07C005CF070215C305C007C205E2
:20009A00C40FC507C005C4073A0034178300521443140114001412147A140014A0140F148A
:2000BA000B14000120179C000117970044178900801791005F17C205D517C30540178400AC
:2000DA003800B017CA058017CB05871C6017C605E317C7051617C8058909C6074707480730
:1400FA004907001281186E1846094708480849087A183A0066
:1A016000480165016C016C016F01200157016F0172016C016401210100013B
:20010E00CA07CC05CB07CD05CC07C005CD07A41C001292189F180C090D08C40585093B1C14
:20012E00FF128B18C007FF128B18FF17C005FF010A17C40585093B183A008011200DA91823
:12014E00E1003A00C0093200A200FF10C009E0003A00F5
:00000001FF
