:020020001D3091
:1000000000000113492F0928FE2C82014F381230BD
:16002400022F800B1930002F80030012022F4728001715301130C0
:02002200733039
:20003A007200800F7200C501402C002B3430851D820F830E002B3430830F800B820F012C44
:20005A00002B3130D01F3230D01D031502167300800B73007B00820F830E002A3830841D4B
:20007A008E0FC90B8F0FCA0BC915CA16C90F800BCA0F022D830B800F820B841F8F0F800BE3
:20009A008E0F7A00342F8301522C432C012C002C122C7A2C002C882C132C0B2CF63D9A01FA
:2000BA000002900F920B910F930B920F800B930F463A002B7230121213108E0B0F1338381D
:2000DA00FF2A6230800FFF2A62307A00202F9C01012F9E01442F8901802F91015F2F820B73
:2000FA00D52F830B402F84017800002FBD01082FBC01BC2FBB01522F900B822F910B5E3861
:20011A00BB1FFB01402C002B8E30FE01BD0B3E133F134013502FB90BAB2FBA0B042FBB0B02
:20013A003C13142F7200B539C201FE288201940F980B950F990B960F9A0B970F9B0B980F7C
:20015A009D0B990F9E0B042F9F0B20130A2FA10BE438042F900B11135E386D2FC10B822FDA
:20017A00C20BFC39111C121C0D1CA82FBB01712FC10B822FC20BFC39BB1FFB01402C002BC0
:20019A00CA30FE019C0B832F900B822F910B5E389C0F9D0B1E13042F9F0B20130A2FA10BFC
:0E01BA00E438042FC10B4213FC39C9307A001F
:2004A4004D026502610273027502720269026E0267022002560244024402200228025602D1
:2004C400420261026E02640247026102700229023A022002000220026D02560200025302B2
:2004E4007402610272027402200241024402430220026F026E022002500241022E02300229
:120504000002500241022E02300220023A02200200026A
:2001C8002213A20F72006B00002F6100800B73001F0CA30BA00F000DA40BA10FA50B2613E9
:2001E8009D0FC50B9E0FC60BA50FC70BA60FC80B183A3028800BA30F80138003A30F800BB5
:20020800A40F463A3A2A000040181331A30F800BA40F463A0728800BA30F801380039D0F05
:20022800B50B9E0FB60BA50FB70BA60FB80B8F399D0B800F9E0B22129D0F9E0E002AE53027
:20024800A20F0129A70BA20F72006B00002F6100800B73001F0C8013200D002F8003281315
:20026800A80FA70CC018802E6B00401A6731A80F72006B00002F6100800B73001F0CA90B28
:20028800A00F000DAA0BA90F800BAA0F463AAB0BA70F72006B00002F6100800B73001F0C67
:2002A800AC0BA00F000DAD0BAC0F800BAD0F463A800BA90F80138003AC0F800BAB0F8003AD
:2002C8002812A71234317A00AF0F802940188331B20F0A2A8331B00FB30BB10FB40BB30F6A
:2002E800800B2D2F8003B30F0128B00BB40F6000B10B002FAE0CAE0B002FAF0DAF0BAE0F03
:160308009D0BAF0F9E0BB00F9F0BB10FA00BB20FA10BE4307A0001
:20031E0049134A13102FCB0B0013B60F6B00002F6D00B515B616C915CA16002BA031012F92
:20033E00C90AC90FB70CCA0FB80D4018AC31B70FC908B80FCA09012FB50ACB0F0129CB0B64
:0C035E00002A9331B60F800BB50F7A0017
:20036A0049134A134B134C13202F800BBC0FCD0B4E134F135013072F4D156300C131CD0F91
:20038A00012CB915BA16BB16BC16C915CA16CB16CC16002BD231012FC90AC90FBD0CCA0FB9
:2003AA00BE0DCB0FBF0DCC0FC00D4018E631BD0FC908BE0FCA09BF0FCB09C00FCC09012FF8
:2003CA00B90A800F0129800B002ABB31C201FC28800B8103800BB90F80030012BA0F8003CC
:0E03EA000012BB0F80030012BC0F80037A00CC
:2003F800C10FC30BC20FC40BC30F800BC40F463A002B1332431244108E0B0F133838FF2A8A
:180418000032800FFF2A0032FF2F800BFF020A2F8E0B0F1338307A0020
:2004300049134A130013C80F6B00002F6D00002A3032C715C816C50FC70CC60FC80D401A11
:200450002C324815471630324A12CA0FC90B1A32C90F800BC50FC70CC60FC80D40183C3243
:20047000C70FC508C80FC60948154716800F8012002A3232C60F800BC50F7A008029401A09
:140490004B3281037A0080137200C201FF28801380037A005E
:00000001FF
