:020020001D3091
:1000000000000113452F0928FE2C820164381230AC
:16002400022F800B1930002F80030012022F4328001715301130C4
:02002200733039
:20003A007200800F7200C501402C002B3430851D820F830E002B3430830F800B820F012C44
:20005A00002B3130D01F3230D01D031502167300800B73007B00820F830E002A3830841D4B
:20007A008E0FC50B8F0FC60BC515C616C50F800BC60F022D830B800F820B841F8F0F800BFB
:20009A008E0F7A00900F920B910F930B920F800B930F403A002B6330121213108E0B0F13AD
:2000BA003838FF2A5330800FFF2A53307A00342F8301522C432C012C002C122C7A2C002C18
:2000DA00882C132C0B2CF63D9A010002202F9C01012F9E01442F8901802F91015F2F820BF8
:2000FA00D52F830B402F84017800002FBD01082FBC01BC2FBB014C2F900B822F910B4F3876
:20011A00BB1FFB01402C002B8E30FE01B90B3A133B133C13502FB50BAB2FB60B042FB70B1E
:20013A003813142F7200AF39C201FE288201950F800B940F990B800F9A0B042F9B0B1C139F
:20015A000A2F9D0BDE38042F900B11134F38672FBD0B822FBE0BF639111C121C0D1CA82FB3
:20017A00BB016B2FBD0B822FBE0BF639BB1FFB01402C002BC430FE01980B7D2F900B822FA3
:20019A00910B4F38980F990B1A13042F9B0B1C130A2F9D0BDE38042FBD0B3E13F639C3303D
:0201BA007A00C9
:200498004D026502610273027502720269026E0267022002560244024402200228025602DD
:2004B800420261026E02640247026102700229023A022002000220026D02560200025302BE
:2004D8007402610272027402200241024402430220026F026E022002500241022E02300235
:1204F8000002500241022E02300220023A022002000277
:2001BC001E139E0F72006B00002F6100800B73001B0C9F0B9C0F000DA00B9D0FA10B221319
:2001DC00990FC10B9A0FC20BA10FC30BA20FC40B123A3028800B9F0F801380039F0F800BEF
:2001FC00A00F403A3A2A000040180D319F0F800BA00F403A0728800B9F0F80138003990F38
:20021C00B10B9A0FB20BA10FB30BA20FB40B8939990B800F9A0B1E12990F9A0E002ADF306F
:20023C009E0F0129A30B9E0F72006B00002F6100800B73001B0C80131C0D002F8003241339
:20025C00A40FA30CC018802E6B00401A6131A40F72006B00002F6100800B73001B0CA50B4E
:20027C009C0F000DA60BA50F800BA60F403AA70BA30F72006B00002F6100800B73001B0C95
:20029C00A80B9C0F000DA90BA80F800BA90F403A800BA50F80138003A80F800BA70F8003DF
:2002BC002412A3122E317A00AB0F802940187D31AE0F0A2A7D31AC0FAF0BAD0FB00BAF0FAC
:2002DC00800B2D2F8003AF0F0128AC0BB00F6000AD0B002FAA0CAA0B002FAB0DAB0BAA0F33
:1602FC00990BAB0F9A0BAC0F9B0BAD0F9C0BAE0F9D0BDE307A0038
:2003120045134613102FC70B0013B20F6B00002F6D00B115B216C515C616002B9A31012FC4
:20033200C50AC50FB30CC60FB40D4018A631B30FC508B40FC609012FB10AC70F0129C70BA6
:0C035200002A8D31B20F800BB10F7A0031
:20035E004513461347134813202F800BB80FC90B4A134B134C13072F49156300BB31C90FCF
:20037E00012CB515B616B716B816C515C616C716C816002BCC31012FC50AC50FB90CC60FFB
:20039E00BA0DC70FBB0DC80FBC0D4018E031B90FC508BA0FC609BB0FC709BC0FC809012F3E
:2003BE00B50A800F0129800B002AB531C201FC28800B8103800BB50F80030012B60F8003EA
:0E03DE000012B70F80030012B80F80037A00E0
:2003EC00BD0FBF0BBE0FC00BBF0F800BC00F403A002B0D323F1240108E0B0F133838FF2AC2
:18040C00FA31800FFF2AFA31FF2F800BFF020A2F8E0B0F1338307A003A
:20042400451346130013C40F6B00002F6D00002A2A32C315C416C10FC30CC20FC40D401A47
:200444002632441543162A324612C60FC50B1432C50F800BC10FC30CC20FC40D401836328F
:20046400C30FC108C40FC20944154316800F8012002A2C32C20F800BC10F7A008029401A3B
:14048400453281037A0080137200C201FF28801380037A0070
:00000001FF
