:020020001D18A9
:100000000000810915170310FE148200511C1218FC
:160024000217C00519180017E000000902171310800B151811189A
:02002200601864
:20003A003200C0073200A500C005D0023618C50EC207430700122A183618C307C005C20711
:20005A000114001231183318F00F3418F00E830A020B3300C00533003B00C207430700125D
:20007A003A18C40EC407D505C507D605D50A560BD507C005D6070215C305C007C205C40FF8
:20009A00C507C005C4073A001C178300521443140114401442140F140014881413140B1465
:2000BA00F61F9900000120179C000717970068178900801791005F17C205D517C305401777
:2000DA008400380084179A008917D1058117D205C01C860987098809C6071011200DAC18C5
:2000FA00C60720159E006417C9058A098B098C09C9074A074B074C0700128C1891184909CA
:20011A004A084B084C088518BA00C005D0029A183E17C40585093A1C9E183C17C4058509CA
:20013A003A1CE9170706C00580178806D205C007D105C01C051707040808060979182017FA
:20015A00CD05BF17CE050217CF059009CD074E074F0750070012BA1871184D094E084F083E
:06017A005008B3183A0022
:2001D20035012E0133013301000134012E0138013001000134012E0133013601000134016B
:2001F2002E0130013001000133012E0136013901000133012E0134013301000133012E0156
:2002120032013001000133012E0130013001000132012E0138013201000132012E01360139
:200232003701000132012E0135013301000132012E0134013001000132012E01320139010E
:20025200000132012E0131013801000132012E0130013901000132012E013001300100012A
:2002720035012E0133013301000134012E0138013001000134012E013301360100013401CA
:200292002E0130013001000133012E0136013901000133012E0134013301000133012E01B5
:2002B20032013001000133012E0130013001000132012E0138013201000132012E01360199
:2002D2003701000132012E0135013301000132012E0134013001000132012E01320139016E
:2002F200000132012E0131013801000132012E0130013901000132012E013001300100018A
:100312005601440144012001690173013A010001BF
:20018000D107D305D207D405D307C005D407DD1C0012CB18D81813091408C40585093A1CC0
:2001A000FF12C418C007FF12C418FF17C005FF010A17C40585093A183A008011200DE21807
:1201C000E1003A00C0093200A200FF10C009E0003A0083
:00000001FF
