:020020001D3091
:1000000000000113152F0128FE2C82014B381230FD
:16002400022F800B1930002F80030012022F1328001715301130F4
:020022005A3052
:20003A007200800F7200C501402C002B3430851D820F830E002B3430830F800B820F012C44
:20005A00002B3130D01F3230D01D031502167300800B73007B00820F830E002A3830841D4B
:20007A00850F800B840F6B0080164026820B800F830B841F850F800B840F7A001C2F830105
:20009A00522C432C012C402C422C0F2C002C882C132C0B2CEE3F9A010002202F9C01072FD5
:2000BA009E01682F9F01802F91015F2F820BD52F830B402F84017800842F9801802F910B5F
:2000DA00812F920BB838061307130813860F1029401AA530860F202D9901642F890B0A13BE
:2000FA000B130C13890F8A0E8B0E8C0E002B8A3089128A108B108C107F30D801402C002BD6
:20011A0093303E2F840B0513383897303C2F840B05133838E02F070C800B802F080D920B27
:20013A00800F910BB838052F0708081006127330202F8D0BBF2F8E0B022F8F0B10138D0F7C
:16015A008E0E8F0E900E002B6B308D128E108F109010AC307A0020
:2001C00035022E0233023302000234022E0238023002000234022E0233023602000234026D
:2001E0002E0230023002000233022E0236023902000233022E0234023302000233022E0258
:2002000032023002000233022E0230023002000232022E0238023202000232022E0236023B
:200220003702000232022E0235023302000232022E0234023002000232022E023202390210
:20024000000232022E0231023802000232022E0230023902000232022E023002300200022C
:2002600035022E0233023302000234022E0238023002000234022E023302360200023402CC
:200280002E0230023002000233022E0236023902000233022E0234023302000233022E02B7
:2002A00032023002000233022E0230023002000232022E0238023202000232022E0236029B
:2002C0003702000232022E0235023302000232022E0234023002000232022E023202390270
:2002E000000232022E0231023802000232022E0230023902000232022E023002300200028C
:100300005602440244022002690273023A020002C9
:20017000910F930B920F940B930F800B940FD438002BCF3013121410840B05133838FF2A62
:20019000BC30800FFF2ABC30FF2F800BFF020A2F840B051338307A008029401AD9308103B3
:1001B0007A0080137200C201FF28801380037A0046
:00000001FF
