:020020001D3091
:1000000000000113152F0328FE2C820151381230F5
:16002400022F800B1930002F80030012022F1328001715301130F4
:0200220061304B
:20003A007200800F7200C501402C002B3430851D820F830E002B3430830F800B820F012C44
:20005A00002B3130D01F3230D01D031502167300800B73007B00820F830E002A3830841D4B
:20007A00840F950B850F960B95159616950F800B960F022D830B800F820BC401402D840144
:20009A00850F800B840F7A001C2F8301482C382C402C422C0F2C002C882C132CEE2F800B97
:2000BA00872FDB389A010002202F9C01072F9701672F8901802F91015F2F820BD52F830BF8
:2000DA00402F84017800842F9801872F910B812F920BBF38061307130813860F1029401A42
:2000FA00AC30860F202D9901642F890B0A130B130C13890F8A0E8B0E8C0E002B9130891223
:20011A008A108B108C108630D801402C002B9A303E2F840B051338389E303C2F840B0513A0
:20013A003838E72F070C800B802F080D920B800F910BBF38052F0708081006127A30202F92
:20015A008D0BBF2F8E0B022F8F0B10138D0F8E0E8F0E900E002B72308D128E108F109010BC
:04017A00B3307A0024
:2001CE0035022E0233023302000234022E0238023002000234022E0233023602000234025F
:2001EE002E0230023002000233022E0236023902000233022E0234023302000233022E024A
:20020E0032023002000233022E0230023002000232022E0238023202000232022E0236022D
:20022E003702000232022E0235023302000232022E0234023002000232022E023202390202
:20024E00000232022E0231023802000232022E0230023902000232022E023002300200021E
:20026E0035022E0233023302000234022E0238023002000234022E023302360200023402BE
:20028E002E0230023002000233022E0236023902000233022E0234023302000233022E02A9
:2002AE0032023002000233022E0230023002000232022E0238023202000232022E0236028D
:2002CE003702000232022E0235023302000232022E0234023002000232022E023202390262
:2002EE00000232022E0231023802000232022E0230023902000232022E023002300200027E
:10030E005602440244022002690273023A020002BB
:20017E00910F930B920F940B930F800B940FDB38002BD63013121410840B05133838FF2A46
:20019E00C330800FFF2AC330FF2F800BFF020A2F840B051338307A008029401AE030810390
:1001BE007A0080137200C201FF28801380037A0038
:00000001FF
