:020020001D3091
:10000000000001130E2F0328FE2C820151381230FC
:16002400022F800B1930002F80030012022F0C28001715301130FB
:020022005C3050
:20003A007200800F7200C501402C002B3430851D820F830E002B3430830F800B820F012C44
:20005A00002B3130D01F3230D01D031502167300800B73007B00820F830E002A3830841D4B
:20007A00840F8E0B850F8F0B8E158F168E0F800B8F0F022D830B800F820BC401402D84016E
:20009A00850F800B840F7A00342F8301482C382C002C122C7A2C002CA02C0F2C0002202FC7
:2000BA009C01012F9701442F8901802F91015F2F820BD52F830B402F84017800AB2F8A0BFB
:2000DA00802F8B0B8338602F860BE32F870B162F880B0913860F870E880E890E002B6B3031
:0C00FA00861287108810891077307A0079
:1A015600480265026C026C026F02200257026F0272026C0264022102000238
:200106008A0F8C0B8B0F8D0B8C0F800B8D0F9F38002B9A300C120D10840B05133838FF2A6E
:200126008730800FFF2A8730FF2F800BFF020A2F840B051338307A008029401AA4308103BC
:100146007A0080137200C201FF28801380037A00B0
:00000001FF
