:020020001D18A9
:10000000000081090E170310FE148200511C121803
:160024000217C00519180017E000000902170C10800B15181118A1
:020022005E1866
:20003A003200C0073200A500C005D0023618C50EC207430700122A183618C307C005C20711
:20005A000114001231183318F00F3418F00E830A020B3300C00533003B00C207430700125D
:20007A003A18C40EC407CE05C507CF05CE0A4F0BCE07C005CF070215C305C007C205C40F22
:08009A00C507C005C4073A00C8
:0207FE00E90E02
:2000A20034178300521443140114001412147A140014A0140F140B14000120179C000117E0
:2000C200970045178900801791005F17C205D517C305401784003800AF17CA058017CB057A
:2000E200861C6017C605E317C7051617C8058909C607470748074907001280186D18460990
:0A01020047084808490879183A0038
:1A015E00480165016C016C016F01200157016F0172016C016401210100013D
:20010C00CA07CC05CB07CD05CC07C005CD07A31C001291189E180C090D08C40585093A1C1A
:20012C00FF128A18C007FF128A18FF17C005FF010A17C40585093A183A008011200DA81829
:12014C00E1003A00C0093200A200FF10C009E0003A00F7
:00000001FF
