:020020001D3091
:10000000000001130E2F0328FE2C82014F381230FE
:16002400022F800B1930002F80030012022F0C28001715301130FB
:020022005E304E
:20003A007200800F7200C501402C002B3430851D820F830E002B3430830F800B820F012C44
:20005A00002B3130D01F3230D01D031502167300800B73007B00820F830E002A3830841D4B
:20007A00840F8E0B850F8F0B8E158F168E0F800B8F0F022D830B800F820B841F850F800B63
:20009A00840F7A00902FB501342F8301522C432C012C002C122C7A2C002CA02C0F2C0B2C49
:2000BA000002202F9C01012F9E01452F8901802F91015F2F820BD52F830B402F8401780011
:2000DA00AD2F8A0B802F8B0B8538602F860BE32F870B162F880B0913860F870E880E890E84
:1000FA00002B6D30861287108810891079307A00AB
:1A015A00480265026C026C026F02200257026F0272026C0264022102000234
:20010A008A0F8C0B8B0F8D0B8C0F800B8D0FA138002B9C300C120D10840B05133838FF2A66
:20012A008930800FFF2A8930FF2F800BFF020A2F840B051338307A008029401AA6308103B2
:10014A007A0080137200C201FF28801380037A00AC
:00000001FF
