:020020001D18A9
:10000000000081090E170110FE1482004D1C121809
:160024000217C00519180017E000000902170C10800B15181118A1
:0200220058186C
:20003A003200C0073200A500C005D0023418C50EC207430700122A183418C207011400127D
:20005A002F183118F00F3218F00E830A020B3300C00533003B00C207430700123818C40E68
:20007A00C507C005C4071B00400BC205C0070215C305A40040158400C507C005C4073A0024
:20009A003417830048143814001412147A140014A0140F14000120179C000117970044173F
:2000BA008900801791005F17C205D517C305401784003800A917CA058017CB05801C601768
:2000DA00C605E317C7051617C8058909C60747074807490700127A1867184609470848081E
:0600FA00490873183A00EA
:1A015200480165016C016C016F01200157016F0172016C0164012101000149
:20010000CA07CC05CB07CD05CC07C005CD079D1C00128B1898180C090D08C4058509381C3A
:20012000FF128418C007FF128418FF17C005FF010A17C4058509381C3A008011200DA21845
:12014000E1003A00C0093200A200FF10C009E0003A0003
:00000001FF
