:020020001D3091
:10000000000001130E2F0128FE2C82014B38123004
:16002400022F800B1930002F80030012022F0C28001715301130FB
:02002200563056
:20003A007200800F7200C501402C002B3230851D820F830E002B3230820F012C002B2F30DB
:20005A00D01F3030D01D031502167300800B73007B00820F830E002A3630841D850F800BBC
:20007A00840F6B008016820B800F022D830BC401402D8401850F800B840F7A00342F83012F
:20009A00482C382C002C122C7A2C002CA02C0F2C0002202F9C01012F9701442F8901802FC9
:2000BA0091015F2F820BD52F830B402F84017800A52F8A0B802F8B0B7D38602F860BE32FE6
:2000DA00870B162F880B0913860F870E880E890E002B6530861287108810891071307A00EE
:1A014A00480265026C026C026F02200257026F0272026C0264022102000244
:2000FA008A0F8C0B8B0F8D0B8C0F800B8D0F9938002B94300C120D10840B05133638FF2A89
:20011A008130800FFF2A8130FF2F800BFF020A2F840B051336387A008029401A9E308103D4
:10013A007A0080137200C201FF28801380037A00BC
:00000001FF
