:020020001D3091
:1000000000000113122F0328FE2C82018A381230BF
:16002400022F800B1930002F80030012022F1028001715301130F7
:02002200953017
:20003A007200800F7200C501402C002B66300612851D820F830E002B3930860F032C002AE2
:20005A003930830F800B820F012C002B3630D01F3730D01D03150216890F002A4630D00135
:20007A00012C002A6630012F890B860F032C870B66300013860F032C8A0B0B138A0F071788
:20009A0066308B0F002A6630890F0929401A5D300815D001012C002B5B30C8270912663034
:2000BA00D001012C002B6530880F840B012F850B09137300800B73007B00820F830E002A2E
:2000DA006A30841D8C0F920B8D0F930B92159316920F800B930F022D830B800F820BC4019D
:2000FA00402D84018D0F800B8C0F7A00850F002B83300013840F05137A00342F8301482CB3
:20011A00382C002C882C772C002CA02C0F2C0002202F9C01002F9701212F8901802F9101DB
:20013A00012F8D015F2F820BD52F830B402F84017800DA2F8E0B802F8F0BB23883388C0BA7
:0A015A00800F8D0B6A38AB307A007D
:2001B4004502630268026F0269026E0267022002730265027202690261026C02200272021C
:2001D400650263026502690276026502200228027402790270026502200273026F026D0201
:1201F40065027402680269026E02670229023A02000205
:200164008E0F900B8F0F910B900F800B910FCE38002BC930101211108C0B0D136A38FF2A50
:20018400B630800FFF2AB630FF2F800BFF020A2F8C0B0D136A307A008029401AD33081038F
:1001A4007A0080137200C201FF28801380037A0052
:00000001FF
