:020020001D3091
:1000000000000113122F0128FE2C820184381230C7
:16002400022F800B1930002F80030012022F1028001715301130F7
:020022008F301D
:20003A007200800F7200C501402C002B64300612851D820F830E002B3730860F032C002AE6
:20005A003730820F012C002B3430D01F3530D01D03150216890F002A4430D001012C002A03
:20007A006430012F890B860F032C870B64300013860F032C8A0B0B138A0F071764308B0FB5
:20009A00002A6430890F0929401A5B300815D001012C002B5930C82709126430D001012C6E
:2000BA00002B6330880F840B012F850B09137300800B73007B00820F830E002A6830841DF5
:2000DA008D0F800B8C0F6B008016820B800F022D830BC401402D84018D0F800B8C0F7A0077
:2000FA00850F002B7D300013840F05137A00342F8301482C382C002C882C772C002CA02C08
:20011A000F2C0002202F9C01002F9701212F8901802F91015F2F820BD52F830B402F840119
:1A013A007800D22F8E0B802F8F0BAA387D388C0B800F8D0B6838A3307A000E
:2001A4004502630268026F0269026E0267022002730265027202690261026C02200272022C
:2001C400650263026502690276026502200228027402790270026502200273026F026D0211
:1201E40065027402680269026E02670229023A02000215
:200154008E0F900B8F0F910B900F800B910FC638002BC130101211108C0B0D136838FF2A72
:20017400AE30800FFF2AAE30FF2F800BFF020A2F8C0B0D1368387A008029401ACB308103B1
:100194007A0080137200C201FF28801380037A0062
:00000001FF
