:020020001D18A9
:100000000000810912170110FE148200871C1218CB
:160024000217C00519180017E000000902171010800B151811189D
:02002200921832
:20003A003200C0073200A500C005D00266180609C50EC207430700122B183918C607031442
:20005A0000123918C2070114001234183618F00F3718F00E830A020BC90700124618B000C3
:20007A000114001266180117C905C6070314C70566188009C6070314CA058B09CA07870B7A
:20009A006618CB0700126618C9070911200D5D18880AB000C00510025B18F80309096618C3
:2000BA00B000C00510026518C807C4050117C50589093300C00533003B00C207430700128B
:2000DA006A18C40ECD07C005CC071B00400BC205C0070215C305A40040158400CD07C0055D
:2000FA00CC073A00C507001283187F188009C40785093A0034178300481438140014881487
:20011A0077140014A0140F14000120179C000017970021178900801791005F17C205D517BB
:20013A00C305401784003800D617CE058017CF05AD1C7F1CCC05C007CD056A1CA6183A0053
:2001AC004501630168016F0169016E0167012001730165017201690161016C012001720134
:2001CC00650163016501690176016501200128017401790170016501200173016F016D0119
:1201EC0065017401680169016E01670129013A01000116
:20015A00CE07D005CF07D105D007C005D107CA1C0012B818C51810091108CC058D096A1CF7
:20017A00FF12B118C007FF12B118FF17C005FF010A17CC058D096A1C3A008011200DCF1822
:12019A00E1003A00C0093200A200FF10C009E0003A00A9
:00000001FF
